{
  "contractName": "CreditLimit",
  "abi": [
    {
      "inputs": [
        {
          "internalType": "uint256",
          "name": "_limit",
          "type": "uint256"
        }
      ],
      "name": "set",
      "outputs": [],
      "stateMutability": "nonpayable",
      "type": "function"
    },
    {
      "inputs": [
        {
          "internalType": "uint256",
          "name": "travellExpense",
          "type": "uint256"
        }
      ],
      "name": "travelling",
      "outputs": [],
      "stateMutability": "nonpayable",
      "type": "function"
    },
    {
      "inputs": [
        {
          "internalType": "uint256",
          "name": "foodExpense",
          "type": "uint256"
        }
      ],
      "name": "food",
      "outputs": [],
      "stateMutability": "nonpayable",
      "type": "function"
    },
    {
      "inputs": [],
      "name": "retrieveCredLimit",
      "outputs": [
        {
          "internalType": "uint256",
          "name": "",
          "type": "uint256"
        }
      ],
      "stateMutability": "view",
      "type": "function"
    }
  ],
  "bytecode": "0x608060405234801561001057600080fd5b5061033e806100206000396000f3fe608060405234801561001057600080fd5b506004361061004c5760003560e01c8063391130fa1461005157806360fe47b11461006d5780638d98a94014610089578063e34604fa146100a7575b600080fd5b61006b600480360381019061006691906101d1565b6100c3565b005b610087600480360381019061008291906101d1565b610123565b005b61009161012d565b60405161009e919061020d565b60405180910390f35b6100c160048036038101906100bc91906101d1565b610136565b005b806000541015610108576040517f08c379a00000000000000000000000000000000000000000000000000000000081526004016100ff90610285565b60405180910390fd5b8060008082825461011991906102d4565b9250508190555050565b8060008190555050565b60008054905090565b80600054101561017b576040517f08c379a000000000000000000000000000000000000000000000000000000000815260040161017290610285565b60405180910390fd5b8060008082825461018c91906102d4565b9250508190555050565b600080fd5b6000819050919050565b6101ae8161019b565b81146101b957600080fd5b50565b6000813590506101cb816101a5565b92915050565b6000602082840312156101e7576101e6610196565b5b60006101f5848285016101bc565b91505092915050565b6102078161019b565b82525050565b600060208201905061022260008301846101fe565b92915050565b600082825260208201905092915050565b7f596f7520686176652065786861757374656420796f75722062616c616e636500600082015250565b600061026f601f83610228565b915061027a82610239565b602082019050919050565b6000602082019050818103600083015261029e81610262565b9050919050565b7f4e487b7100000000000000000000000000000000000000000000000000000000600052601160045260246000fd5b60006102df8261019b565b91506102ea8361019b565b9250828203905081811115610302576103016102a5565b5b9291505056fea26469706673582212209646545f78f8392918f72f49bf7d7708aa12f0b56e386ad5f8cf79011356998164736f6c63430008110033",
  "immutableReferences": {},
  "source": "// SPDX-License-Identifier: MIT\r\n// Aditya Bapat BE IT 2019140007\r\n\r\npragma solidity >=0.5.0 <0.9.0;\r\n\r\ncontract CreditLimit{\r\n    uint limit;\r\n\r\n\r\nfunction set(uint _limit) public {\r\n        limit = _limit;\r\n    }\r\n\r\nfunction travelling(uint travellExpense) public{\r\n    require(limit >= travellExpense,\"You have exhausted your balance\");\r\n    limit -= travellExpense;\r\n}\r\n\r\nfunction food(uint foodExpense) public{\r\n    require(limit >= foodExpense,\"You have exhausted your balance\");\r\n    limit -= foodExpense;\r\n}\r\n    \r\nfunction retrieveCredLimit () public view returns(uint){\r\n        return (limit);\r\n    }\r\n\r\n}",
  "sourcePath": "C:\\Users\\Aditya Bapat\\Desktop\\labs\\blockchain_2019140007\\BCT_lab7\\truffle\\contracts\\credLimit.sol",
  "compiler": {
    "name": "solc",
    "version": "0.8.17+commit.8df45f5f.Emscripten.clang"
  },
  "schemaVersion": "3.4.10",
  "updatedAt": "2022-11-01T09:49:42.058Z",
  "devdoc": {
    "kind": "dev",
    "methods": {},
    "version": 1
  },
  "userdoc": {
    "kind": "user",
    "methods": {},
    "version": 1
  }
}